:100000000C948A050C94CE050C94CE050C94CE0568
:100010000C94CE050C94CE050C94CE050C94CE0514
:100020000C94CE050C94CE050C943D0D0C940F0E43
:100030000C942A1C0C94CE050C94CE050C94CE0581
:100040000C94CE050C94CE050C94CE050C94CE05E4
:100050000C94CE050C949D1C0C94CE050C94CE05EE
:100060000C94CE050C94CE050C94CE050C94CE05C4
:100070000C94CE050C94CE050C94CE050C94CE05B4
:100080000C94CE050C94CE050C94CE050C94CE05A4
:100090000C94CE050C94CE050C94CE050C94CE0594
:1000A0000C94CE050C94CE050C94CE05740E960ED1
:1000B000810F960E810FD80EFB0E810F500F630F2C
:1000C000B512B512E312E3123F137B136C156C15D6
:1000D00093136C158A148A1446156C156C155A15F1
:1000E000F1A1291E1F20212223242526272D2E00A1
:1000F0002A2B141A0815171C180C12132F30310054
:1001000039041607090A0B0D0E0F3334002800E1DD
:10011000001D1B061905111036373800E500E0C038
:10012000E20000002C000000E6C065E400353A3B28
:100130003C3D3E3F404142434445010101015201E3
:10014000010101014B4E46474801000150514F014A
:100150000101010101010101010001010101010190
:100160000101010101010101010101010000000182
:1001700000000001010101000A0025303136620053
:100180003A200025303258000A722F632030313275
:10019000333435363738394142434445460A000A3C
:1001A000002530325800626F756E6365213A200079
:1001B0005B735D004B6579626F617264207374617B
:1001C00072742E0A0055534220636F6E666967751C
:1001D0007265642E0A005B575D005B535D005B52E5
:1001E0005D005B445D005B435D000C035300360023
:1001F00030002D0058000000080376006E006300F8
:1002000000000403090409027400040100A032097B
:100210000400000103010100092111010001223F36
:10022000000705810308000A090401000103010217
:1002300000092111010001224D0007058203080079
:100240000A09040200010300000009211101000154
:100250002236000705830308000A0904030002038D
:10026000000000092111010001222000070584037C
:100270002000010705040320000112011001000005
:100280000008DAF066060100010200010631FF09EC
:1002900074A1010975150025FF95207508810209D3
:1002A00076150025FF952075089102C0050109808B
:1002B000A101850216010026B7001A01002AB70025
:1002C000751095018100C0050C0901A10185031677
:1002D0000100269C021A01002A9C027510950181DA
:1002E00000C005010902A1010901A10005091901C8
:1002F00029051500250195057501810295017503F4
:1003000081010501093009311581257F95027508A4
:10031000810609381581257F950175088106050C30
:100320000A38021581257F950175088106C0C00530
:10033000010906A101050719E029E7150025019526
:1003400008750181029501750881010508190129C7
:100350000595057501910295017503910105071930
:100360000029FF150025FF950675088100C00A00C9
:100370002530325820006B6579626F6172645F725C
:1003800065706F72743A20000A0025303258006B95
:100390006579626F6172645F7365745F6C65643AFE
:1003A0002000646F6E652E0A00626F6F746D616766
:1003B0006963207363616E3A202E2E2E2000290A75
:1003C000002575002F002575005D2800256400209C
:1003D00000256400200025640020002564007C00C6
:1003E00025303258006D6F7573656B6579205B62DF
:1003F000746E7C782079207620685D287265702F75
:1004000061636C293A205B006D6B5F776865656C92
:100410005F74696D655F746F5F6D6178203D202545
:10042000640A006D6B5F776865656C5F6D61785F0E
:100430007370656564203D2025640A006D6B5F74F0
:10044000696D655F746F5F6D6178203D2025640A7A
:10045000006D6B5F6D61785F7370656564203D2032
:1004600025640A006D6B5F696E74657276616C203D
:100470003D2025640A006D6B5F64656C6179203DE9
:100480002025640A006D6B5F776865656C5F746931
:100490006D655F746F5F6D6178203D2025640A0093
:1004A0006D6B5F776865656C5F6D61785F737065B4
:1004B0006564203D2025640A006D6B5F74696D657D
:1004C0005F746F5F6D6178203D2025640A006D6B5D
:1004D0005F6D61785F7370656564203D2025640AF7
:1004E000006D6B5F696E74657276616C203D2025CE
:1004F000640A006D6B5F64656C6179203D20256442
:100500000A000A00257500363A20776865656C5F39
:1005100074696D655F746F5F6D61783A20000A00E1
:10052000257500353A20776865656C5F6D61785F89
:1005300073706565643A20000A00257500343A201E
:1005400074696D655F746F5F6D61783A20000A00B1
:10055000257500333A206D61785F73706565643A84
:1005600020000A00257500323A20696E74657276A3
:10057000616C286D73293A20000A00257500313A14
:100580002064656C6179282A31306D73293A200026
:100590000A092D2056616C756573202D0A004D3EA9
:1005A000004D25643E20003F00736574206465663D
:1005B00061756C740A00433E20007768657265209F
:1005C00064656C74613A20637572736F723D256463
:1005D0002C20776865656C3D25640A536565206845
:1005E0007474703A2F2F656E2E77696B697065642D
:1005F00069612E6F72672F77696B692F4D6F757305
:10060000655F6B6579730A000A092D204D6F75735C
:10061000656B6579202D0A4553432F713A09717531
:1006200069740A313A0964656C6179282A31306D40
:1006300073290A323A09696E74657276616C286DA5
:1006400073290A333A096D61785F73706565640ACE
:10065000343A0974696D655F746F5F6D61780A354E
:100660003A09776865656C5F6D61785F7370656581
:10067000640A363A09776865656C5F74696D655F11
:10068000746F5F6D61780A0A703A097072696E74EE
:100690002076616C7565730A643A09736574206429
:1006A000656661756C74730A75703A092B310A645A
:1006B0006F776E3A092D310A706775703A092B31E0
:1006C000300A7067646F776E3A092D31300A0A7309
:1006D00070656564203D2064656C7461202A206D1E
:1006E00061785F7370656564202A20287265706583
:1006F0006174202F2074696D655F746F5F6D617820
:10070000290A003F004D3E2000433E20004C256456
:100710000A000A092D20436F6E736F6C65202D0A45
:100720004553432F713A09717569740A6D3A096D21
:100730006F7573656B65790A000A092D204D616735
:100740006963202D0A643A0964656275670A783A1C
:10075000096465627567206D61747269780A6B3A25
:10076000096465627567206B6579626F6172640AFE
:100770006D3A096465627567206D6F7573650A76F9
:100780003A0976657273696F6E0A733A0973746118
:100790007475730A633A09636F6E736F6C65206DCD
:1007A0006F64650A302D343A096C61796572302DB9
:1007B00034284631302D4634290A506175733A0980
:1007C000626F6F746C6F616465720A653A09656582
:1007D00070726F6D0A000A002575002E6E6B726FC5
:1007E0003A20000A002575002E737761705F626100
:1007F000636B736C6173685F6261636B7370616379
:10080000653A20000A002575002E737761705F67D6
:10081000726176655F6573633A20000A0025750092
:100820002E6E6F5F6775693A20000A002575002EED
:10083000737761705F72616C745F726775693A207B
:10084000000A002575002E737761705F6C616C740F
:100850005F6C6775693A20000A002575002E636198
:1008600070736C6F636B5F746F5F636F6E74726FC6
:100870006C3A20000A002575002E737761705F6363
:100880006F6E74726F6C5F636170736C6F636B3AE1
:1008900020000A0025303258006B65796D61705F69
:1008A000636F6E6669672E7261773A20000A0025D1
:1008B00075002E6D6F7573653A20000A002575006E
:1008C0002E6B6579626F6172643A20000A002575AB
:1008D000002E6D61747269783A20000A0025750057
:1008E0002E656E61626C653A20000A002530325830
:1008F0000064656275675F636F6E6669672E72611B
:10090000773A20000A0025750064656661756C748D
:100910005F6C617965723A20003F0074696D6572A1
:100920005F72656164333228293A202530346C586F
:100930000A006B6579626F6172645F69646C653A25
:100940002025580A006B6579626F6172645F70726E
:100950006F746F636F6C3A2025580A00686F737468
:100960005F6B6579626F6172645F6C65647328297F
:100970003A2025580A000A092D20537461747573B2
:10098000202D0A004743433A20342E382E3220418E
:1009900056522D4C4942433A20312E382E302041B8
:1009A00056525F415243483A20617672350A004FF1
:1009B0005054494F4E533A204C55464120424F4FD8
:1009C000544D41474943204D4F5553454B455920C0
:1009D00045585452414B455920434F4E534F4C4577
:1009E00020434F4D4D414E4420343039360A0042A9
:1009F00055494C443A20306632393633612028302C
:100A0000313A30313A31382041707220203320326F
:100A1000303136290A005649443A2030784630446D
:100A20004128766E6329205049443A203078303688
:100A30003636285336302D5829205645523A203024
:100A400078303030310A00444553433A20742E6DDB
:100A50002E6B2E206B6579626F61726420666972FD
:100A60006D7761726520666F722053656E74726176
:100A700071205336302D580A000A092D2056657210
:100A800073696F6E202D0A000A6D6F7573653A20C9
:100A90006F66660A000A6D6F7573653A206F6E0A9D
:100AA000000A6B6579626F6172643A206F66660A4C
:100AB000000A6B6579626F6172643A206F6E0A009A
:100AC0000A6D61747269783A206F66660A000A6D71
:100AD00061747269783A206F6E0A000A6465627503
:100AE000673A206F6E0A000A64656275673A206F84
:100AF00066660A000A0A626F6F746C6F61646572E1
:100B00002E2E2E2000433E20006565636F6E6669C1
:100B1000673A0A0011241FBECFEFDAE0DEBFCDBF77
:100B200004B603FE24C08091D0019091D101A09120
:100B3000D201B091D3018730904BA740B04BB9F4AC
:100B40001092D0011092D1011092D2011092D301D3
:100B500014BE84B7877F84BF88E10FB6F894809372
:100B60006000109260000FBEE0E0F8E3099511E02C
:100B7000A0E0B1E0E8E8F1E502C005900D92A233F3
:100B8000B107D9F711E0A2E3B1E001C01D92A03D89
:100B9000B107E1F70E94730A0C94C2280C9400007C
:100BA000FF93EF93E0913201F0913301309709F018
:100BB0000995EF91FF910895FC018591803011F026
:100BC000EFDFFBCF0895FF27E0E230E247FF0CC0E4
:100BD000419597FF09C0EDE26095709580959095DD
:100BE000611D711D811D911D27FF02C0219530E3FC
:100BF00050E2AA27660F771F881F991FAA1FA41704
:100C000010F0A41B63955A95A9F7AA3008F0A95FC4
:100C1000A05DAF93F395611571058105910541F7CD
:100C2000ED3211F4EF93F395F21718F43F93F39527
:100C3000FBCF8F91B5DFFA95E1F70895E991F9912E
:100C40008591803021F0853219F0AADFF9CF08951F
:100C500020E0E89455915532C1F3503311F4689473
:100C600055915A3348F4505390F3220F022E220F1D
:100C7000220F200D250FF4CF0EF421958991999123
:100C8000533619F3533729F1533559F1BC018827ED
:100C90009927E8945C3621F489919991689455914B
:100CA000543639F446EF7EF077FF0DC08FEF9FEF9B
:100CB0000AC055374AE039F0583540E121F0523644
:100CC00042E009F00895FF93EF937DDFEF91FF91EC
:100CD000B7CFFF93EF93FC0181918030B9F360DFD0
:100CE000FBCFFF93EF9368DFF1CFDF93CF93CDB7C7
:100CF000DEB72596A3DFCF91DF9108959FE0799F1E
:100D0000F00111249BE4899FE00DF11D1124E60FF1
:100D1000F11DEE51FF4F84910895E82FF0E0EE0FA2
:100D2000FF1FE05AF04085919491089584B1807737
:100D300084B985B1807785B908950E949606859813
:100D4000899A6E98769A8AB11AB88BB18FEF8BB95F
:100D500087B18F7387B988B1806C88B984B18F7877
:100D600084B985B1806785B9EEE3F1E0A4E3B1E031
:100D7000119211921D921D9281E0E834F807C1F79B
:100D80000895EF92FF920F931F93CF93DF93C4E3E5
:100D9000D1E010E001E0E1EAEE2EE1E0FE2E1230BB
:100DA00071F018F4113041F004C0133059F01430D0
:100DB00061F0279A2F980BC0239A2B9808C0229A8B
:100DC0002A9805C0219A299802C0209A289880EA7A
:100DD0008A95F1F729B12170202730E0499B03C0A3
:100DE00080E090E002C082E090E0282B392B4A9B03
:100DF00003C080E090E002C084E090E0822B932B5F
:100E00004B9B03C060E070E002C068E070E09C01B2
:100E1000262B372B4D9B03C040E050E002C040E141
:100E200050E0242B352B4C9B03C080E090E002C0A7
:100E300080E290E0282B392B4E9B03C080E090E0AD
:100E400002C080E490E0282B392B89B1992787FDD7
:100E50009095809590958827990F881F992796954A
:100E6000982F882797958795282B392B1C9B03C093
:100E700040E050E002C040E051E0242B352B1D9BA8
:100E800003C040E050E002C040E052E0242B352B8C
:100E90001E9B03C080E090E002C080E094E0282B1D
:100EA000392B369B03C080E090E002C080E098E0E0
:100EB000282B392B86B1992787FD909580959095A1
:100EC0008827990F881F9927982F88279295907FB8
:100ED000282B392B669B03C080E090E002C080E0A5
:100EE00090E2282B392B799B03C080E090E002C070
:100EF00080E090E4282B392B888199818217930711
:100F000049F13983288380910001882301F1809180
:100F1000B10180FF04C086EA91E00E94DC05809167
:100F2000B10180FF0CC0809100011F928F93FF924E
:100F3000EF920E9475060F900F900F900F90809186
:100F4000B10180FF04C08FE991E00E94DC0585E0DB
:100F5000809300010E9496061F5F2296153009F0CB
:100F60001ECF809100018823C1F081508093000141
:100F7000882339F08FE99FE00197F1F700C0000066
:100F80000CC0AEE3B1E0E4E3F1E0819191918D9387
:100F90009D9391E0EE33F907C1F781E0DF91CF91A6
:100FA0001F910F91FF90EF900895E82FF0E0EE0F62
:100FB000FF1FE25CFE4F808191810895CF92DF9206
:100FC000EF92FF920F931F93CF93DF9388E891E006
:100FD0000E94DC05CEE3EC2EC1E0FC2EC0E0D0E0A8
:100FE00013E8C12E11E0D12E0AE711E0DF93CF9371
:100FF000DF92CF920E94750680E891E00E94DC05A6
:10100000F701819191917F010E94D11B9F938F9352
:101010001F930F930E94750688E791E00E94DC05FC
:1010200021968DB79EB708960FB6F8949EBF0FBE57
:101030008DBFC530D105D1F6DF91CF911F910F91B2
:10104000FF90EF90DF90CF90089508958091530125
:1010500008959FB7F89410924A019FBF9091C601DE
:10106000943009F058C09091E9009F702091EC00F5
:1010700020FF02C020E801C020E0292B94E09093DB
:10108000E9009091EB0090FF43C09091EE0097FF34
:101090003FC090914801992321F09091E80095FF7D
:1010A00037C01092480196E03091E80035FD15C038
:1010B0003091C601343061F53091EB0035FD28C028
:1010C000915021F481E08093480122C0EFE9FFE0D4
:1010D0003197F1F700C00000E7CF8093F1008091D5
:1010E000E80085FD0AC08091E80080FFFCCF809178
:1010F000E8008E778093E80006C08FB7F89491E0FF
:1011000090934A018FBF2F702093E90080E00895EB
:101110002F702093E9008FEF0895CF93DF9300D0D5
:101120001F92CDB7DEB72091C601243019F523E018
:1011300029839B838A832093E9008FEF9091E800B5
:10114000815095FD06C095ED9A95F1F7000081114B
:10115000F5CF8091E80085FF0DC040E050E063E0EE
:1011600070E0CE0101960E94300B8091E8008E77EE
:101170008093E8000F900F900F90DF91CF9108952A
:10118000CF93DF9300D01F92CDB7DEB72091C60179
:10119000243021F522E029839B838A8383E0809396
:1011A000E9008FEF9091E800815095FD06C095ED24
:1011B0009A95F1F700008111F5CF8091E80085FF45
:1011C0000DC040E050E063E070E0CE0101960E9467
:1011D000300B8091E8008E778093E8000F900F909D
:1011E0000F90DF91CF9108952091C6012430F1F442
:1011F00022E02093E9002FEF3091E800215035FDE7
:1012000006C035ED3A95F1F700002111F5CF209198
:10121000E80025FF0BC040E050E065E070E00E9470
:10122000300B8091E8008E778093E8000895CF938B
:10123000DF93EC018091C601843039F581E0809321
:10124000E9008FEF9091E800815095FD06C095ED83
:101250009A95F1F700008111F5CF8091E80085FFA4
:1012600014C040E050E068E070E0CE010E94300B16
:101270008091E8008E778093E80088E0FE01ABE47F
:10128000B1E001900D928A95E1F7DF91CF91089539
:1012900086EE91E00E94DC058091C501811109C0B4
:1012A0000E94C20C0E941F0D8091E2008460809316
:1012B000E200089582EE91E00E94DC051092C501E3
:1012C00008958EED91E00C94DC058AED91E00C948C
:1012D000DC0586ED91E00E94DC050C94281C8091D1
:1012E00049018F5F8093490162E30E945728911161
:1012F00035C01092490180914A01882379F180918B
:10130000C601843049F58091E9008F709091EC001E
:1013100090FF02C090E801C090E0982B84E0809399
:10132000E9008091EB0080FF14C08091EE0087FF00
:1013300010C08091E80085FF03C01092F100F9CF42
:101340008091E80080FF05C08091E8008E7780934F
:10135000E8009F709093E90010924A01089542E0DE
:1013600061EC81E00E943C0C42E061EC82E00E9472
:101370003C0C42E061EC83E00E943C0C42E261ECF8
:1013800084E00C943C0C8091C801833009F453C074
:1013900030F4813071F0823009F48CC008958A30C5
:1013A00009F478C08B3009F45EC0893009F09AC026
:1013B00020C08091C701813A09F094C08091E80073
:1013C000877F8093E8008091CB019091CC01892B9D
:1013D00021F060E080E090E003C068E08BE491E001
:1013E00070E00E94790B8091E8008B778093E80091
:1013F00008958091C701813209F074C08091CB01BA
:101400009091CC01892B09F06DC08091E800877F15
:101410008093E8008091E80082FD05C08091C601BC
:101420008111F8CF5FC08091F100809353018091CA
:10143000E8008B7753C08091C701813A09F052C010
:101440008091CB019091CC01892B09F04BC0809108
:10145000E800877F8093E8008091E80080FFFCCF60
:1014600080910B0136C08091C7018132D9F58091FE
:10147000CB019091CC01892BA9F58091E800877F61
:101480008093E8000E94710C8091C90180930B0148
:101490000C948D158091C701813221F58091E8006F
:1014A000877F8093E8000E94710C8091CA0180932D
:1014B000540108958091C701813AA1F48091E80018
:1014C000877F8093E8008091E80080FFFCCF8091C7
:1014D00054018093F1008091E8008E778093E800BA
:1014E0000C94710C089584B7877F84BF88E10FB690
:1014F000F89480936000109260000FBE90E080E846
:101500000FB6F89480936100909361000FBE0E9423
:1015100027100E94C20C0E941F0D8091E20084607F
:101520008093E20089E298E00E94BA1B789480914F
:10153000C6018430E1F785EC91E00E94DC050E9451
:10154000291081E091E00E94990F84EB91E00E94C4
:10155000DC058091C601853089F480EB91E00E9422
:10156000DC050E94EB1B8091C401882391F30E944B
:10157000131C882371F30E941A0BEBCF0E945710A3
:10158000E8CF292F332723303105A9F06CF421301F
:10159000310509F442C02230310509F043C084E727
:1015A00090E026E032E042C021323105C9F022321B
:1015B000310519F137C099278130910541F082300A
:1015C000910541F0892B71F5E2E0F2E005C0E8EF0A
:1015D000F1E002C0EAEEF1E0849190E09F0126C0C4
:1015E000643000F5E62FF0E0EE0FFF1FE05EFE4FE7
:1015F0002081318189E090E019C0643098F4E62FB1
:10160000F0E0DF01AA0FBB1FA85EBE4F2D913C91F9
:10161000EC5EFE4F808190E009C082E190E02AE715
:1016200032E004C080E090E020E030E0FA01318355
:101630002083089580E189BD82E189BD09B400FE5F
:10164000FDCF8091D8008F7D8093D8008091E000FD
:1016500082608093E0008091E00081FDFCCF0895DE
:10166000CF92DF92EF92FF920F931F93CF93DF936E
:101670007C018B01EA010E94920C811131C02097FC
:1016800031F088819981081B190BE80EF91EC12CD5
:10169000D12C0115110519F18091E80085FD14C0C8
:1016A0008091E8008E778093E800209741F0888150
:1016B00099818C0D9D1D9983888385E011C00E94BE
:1016C000920C882331F30CC0F70181917F01809344
:1016D000F10001501109FFEFCF1ADF0ADACF80E0E5
:1016E000DF91CF911F910F91FF90EF90DF90CF90FE
:1016F00008952091CD013091CE012617370748F08B
:101700006115710539F42091E8002E772093E800E7
:1017100001C0B901FC0120E061157105B9F18091AA
:10172000C601882309F440C0853009F43FC0809188
:10173000E80083FD3DC08091E80082FF06C08091F3
:10174000E80082FF26C080E008958091E80080FFD5
:10175000E3CF2091F3008091F20090E0922B61158D
:10176000710551F08830910538F421912093F100F2
:10177000615071090196F3CF21E0089709F020E04C
:101780008091E8008E778093E800C6CF2111C7CF03
:10179000D6CF8091C601882339F0853039F0809109
:1017A000E80083FFCCCF04C082E0089583E0089571
:1017B00081E008952091CD013091CE0126173707A1
:1017C00048F06115710539F42091E8002E772093D7
:1017D000E80001C0B901FC0120E061157105C1F10B
:1017E0008091C601882309F441C0853009F440C0C6
:1017F0008091E80083FD3EC08091E80082FF06C032
:101800008091E80082FF27C080E008958091E80081
:1018100080FFE3CF2091F3008091F20090E0922BC3
:101820006115710559F08830910540F42491209399
:10183000F1003196615071090196F2CF21E00897CD
:1018400009F020E08091E8008E778093E800C5CF12
:101850002111C6CFD5CF8091C601882339F08530BC
:1018600039F08091E80083FFCBCF04C082E0089577
:1018700083E0089581E00895982F973058F590936C
:10188000E900981739F07091EC002091ED0050912B
:10189000F00003C0242F762F50E021FF19C03091B3
:1018A000EB003E7F3093EB003091ED003D7F3093B5
:1018B000ED003091EB0031603093EB007093EC0061
:1018C0002093ED005093F0002091EE0027FF07C019
:1018D0009F5FD3CF8F708093E90081E0089580E00F
:1018E00008958091C70187FD05C08091E80080FFC1
:1018F0000EC012C08091E80082FD05C08091C60133
:101900008111F8CF08958091E8008B7708C080910D
:10191000C6018111EACF08958091E8008E77809307
:10192000E80008958091E4009091E50045E620915B
:10193000EC0020FF21C02091E80020FD21C0209173
:10194000C601222389F0253089F02091EB0025FD86
:101950000FC02091E4003091E5002817390739F3D2
:10196000415041F0C901E3CF82E0089583E008953A
:1019700081E0089584E008952091E80022FFDFCF00
:1019800080E008950E94300D0E94380DE0EEF0E0F6
:10199000808181608083E8EDF0E080818F778083B3
:1019A00019BCA7EDB0E08C918E7F8C9380818F7EE7
:1019B00080831092C50108950F931F93CF93DF93F7
:1019C0000E94300D0E94380DC8EDD0E088818F77DD
:1019D000888388818068888388818F7D888319BC0B
:1019E0001092C6011092C2011092C4011092C3015C
:1019F00000EE10E0F80180818B7F80838881816018
:101A0000888342E060E080E00E943C0CE1EEF0E080
:101A100080818E7F8083E2EEF0E080818160808330
:101A2000808188608083F80180818E7F80838881B7
:101A300080618883DF91CF911F910F910895E8ED28
:101A4000F0E080818F7E8083E7EDF0E0808181602F
:101A5000808384E082BF81E08093C5010C94DC0C1C
:101A6000E8EDF0E080818E7F80831092E20008959F
:101A70001092DA001092E10008951F920F920FB6B3
:101A80000F9211242F933F934F935F936F937F9304
:101A90008F939F93AF93BF93EF93FF938091E10058
:101AA00082FF0BC08091E20082FF07C08091E100BD
:101AB0008B7F8093E1000E946F098091DA0080FFA4
:101AC0001FC08091D80080FF1BC08091DA008E7FFC
:101AD0008093DA008091D90080FF0DC080E189BD3C
:101AE00082E189BD09B400FEFDCF81E08093C6018B
:101AF0000E94480905C019BC1092C6010E945A09EB
:101B00008091E10080FF19C08091E20080FF15C044
:101B10008091E2008E7F8093E2008091E2008061FC
:101B20008093E2008091D80080628093D80019BC35
:101B300085E08093C6010E9465098091E10084FFE1
:101B400030C08091E20084FF2CC080E189BD82E139
:101B500089BD09B400FEFDCF8091D8008F7D8093B0
:101B6000D8008091E1008F7E8093E1008091E200B7
:101B70008F7E8093E2008091E20081608093E2009A
:101B80008091C201882311F084E007C08091E300B6
:101B900087FF02C083E001C081E08093C6010E94FC
:101BA00069098091E10083FF29C08091E20083FFF1
:101BB00025C08091E100877F8093E10082E08093DF
:101BC000C6011092C2018091E1008E7F8093E100F6
:101BD0008091E2008E7F8093E2008091E20080613C
:101BE0008093E20042E060E080E00E943C0C809143
:101BF000F00088608093F0000E946109FF91EF91EE
:101C0000BF91AF919F918F917F916F915F914F9114
:101C10003F912F910F900FBE0F901F9018951F921C
:101C20000F920FB60F9211242F933F934F935F9310
:101C30006F937F938F939F93AF93BF93CF93EF93C4
:101C4000FF93C091E900CF708091EC001092E90001
:101C50008091F000877F8093F00078940E944B0E73
:101C60001092E9008091F00088608093F000C093AA
:101C7000E900FF91EF91CF91BF91AF919F918F912B
:101C80007F916F915F914F913F912F910F900FBE78
:101C90000F901F9018951F93CF93DF93CDB7DEB7AA
:101CA000AA970FB6F894DEBF0FBECDBFE7ECF1E008
:101CB0008091F100819321E0EF3CF207C9F70E9487
:101CC000C3098091E80083FF1CC12091C7013091B6
:101CD000C801832F90E08A30910508F012C1FC0101
:101CE000EA5AFF4F0C947728203881F0223809F007
:101CF00008C18091CB018F708093E9008091EB0047
:101D000085FB882780F91092E90006C08091C30105
:101D10009091C401911182609091E800977F909317
:101D2000E8008093F1001092F100C5C0822F8D7FF2
:101D300009F0E7C0222319F0223061F0E2C080915F
:101D4000C901813009F0DDC0333009F080E08093B3
:101D5000C40128C08091C901811124C02091CB0108
:101D60002F7009F4CEC02093E9008091EB0080FF32
:101D700019C08091EB00333011F4806211C0806192
:101D80008093EB0081E090E0022E01C0880F0A945E
:101D9000EAF78093EA001092EA008091EB008860F5
:101DA0008093EB001092E9008091E800877F86C065
:101DB0002111A7C01091C9011F778091E30080789D
:101DC000812B8093E3008091E800877F8093E80077
:101DD0000E94710C8091E80080FFFCCF8091E300AD
:101DE00080688093E300112311F083E001C082E05A
:101DF0008093C60186C02058223008F082C08091AE
:101E0000C9019091CA018C3D23E0920779F583E0E6
:101E10008A838AE289834FB7F894DE01139620E023
:101E20003EE051E2E32FF0E050935700E49120FFB1
:101E300003C0E295EF703F5FEF708E2F90E0EA30C5
:101E400010F0C79601C0C0968D939D932F5F2431EB
:101E500049F74FBF8091E800877F8093E8006AE2EE
:101E600070E0CE0101960E94790B14C0AE014F5F65
:101E70005F4F6091CB010E94C10A009709F441C0F5
:101E80002091E800277F2093E800BC0189819A8196
:101E90000E94DA0B8091E8008B778093E80031C0D4
:101EA000203879F58091E800877F8093E800809161
:101EB000C2018093F1008091E8008E778093E80062
:101EC0000E94710C1EC021111CC09091C90192305A
:101ED000C0F48091E800877F8093E8009093C2016E
:101EE0000E94710C8091C201811104C08091E300B5
:101EF00087FF02C084E001C081E08093C6010E9498
:101F0000AF098091E80083FF0AC08091E800877FD5
:101F10008093E8008091EB0080628093EB00AA96AA
:101F20000FB6F894DEBF0FBECDBFDF91CF911F91EA
:101F3000089590935A01809359010895E0915901B1
:101F4000F0915A01309721F00190F081E02D099431
:101F500080E00895FF920F931F93CF93DF938C013E
:101F6000E0915901F0915A01309799F10280F38183
:101F7000E02D09958091B10182FF2BC080FF04C044
:101F800086E793E00E94DC05E80188E0F82E00E790
:101F900013E08091B10180FF0BC088811F928F9365
:101FA0001F930F930E9475060F900F900F900F9044
:101FB000FA942196F110EDCF8091B10180FF09C014
:101FC0008EE693E0DF91CF911F910F91FF900C94DB
:101FD000DC05DF91CF911F910F91FF900895E09163
:101FE0005901F0915A01309721F00480F581E02DDC
:101FF0000994089520915701309158018217930751
:1020000071F09093580180935701E0915901F0913C
:102010005A01309721F00680F781E02D0994089548
:1020200020915501309156018217930771F09093DA
:10203000560180935501E0915901F0915A01309772
:1020400021F00084F185E02D0994089508950C9401
:1020500026100E94531C0E949D060C940F1ECF93C5
:10206000C82F8091B10182FF1EC080FF04C08FE89D
:1020700093E00E94DC058091B10180FF0CC01F92AB
:10208000CF932AE833E03F932F930E9475060F9079
:102090000F900F900F908091B10180FF04C088E8ED
:1020A00093E00E94DC058C2FCF910C9425085F9261
:1020B0006F927F928F929F92AF92BF92CF92DF9258
:1020C000EF92FF920F931F93CF93DF93CDB7DEB7BD
:1020D0002A970FB6F894DEBF0FBECDBF0E94C1068F
:1020E0009CE5C92E91E0D92E00E010E0AA24A3942B
:1020F000B12C502E802F0E94D5073C01F601E190B3
:10210000F1906F01E826F926E114F104B1F40F5FB4
:102110001F4F0530110569F78FEF89838A831B8272
:102120000E945C1C8160782F9D838C8349815A8139
:102130006B818D810E9410113AC08091B10181FDA7
:102140000E94DE0720E030E04501022E02C0880C2C
:10215000991C0A94E2F7C4018E219F21892B09F171
:102160002E835F826820792081E0672809F480E06F
:1021700088870E945C1C8160782F9A8789874E81AE
:102180005F8168858A850E941011F801EE0FFF1F9C
:10219000E45AFE4F8081918188259925918380831F
:1021A00006C02F5F3F4F2F30310571F6B0CF0E9430
:1021B0008D2110915B010E949E0F1817D9F00E948B
:1021C0009E0F80935B012A960FB6F894DEBF0FBE78
:1021D000CDBFDF91CF911F910F91FF90EF90DF90D6
:1021E000CF90BF90AF909F908F907F906F905F90B7
:1021F0000C942F102A960FB6F894DEBF0FBECDBFF9
:10220000DF91CF911F910F91FF90EF90DF90CF90D2
:10221000BF90AF909F908F907F906F905F90089548
:10222000CF93DF93CDB7DEB72B970FB6F894DEBF11
:102230000FBECDBF4F83588769877A878B87DE01B2
:10224000119686E0FD0111928A95E9F785E0FE017D
:10225000379601900D928A95E1F749815A816B81F9
:102260007C818D819E810E9459182B960FB6F8941F
:10227000DEBF0FBECDBFDF91CF910895CF93C82FA2
:10228000882309F4CCC0823859F40E949E0F81FD46
:10229000C6C089E30E94131B0E94941B89E30CC0F3
:1022A000833879F40E949E0F80FDB9C083E50E94B7
:1022B000131B0E94941B83E50E94341BCF910C9446
:1022C000941B843859F40E949E0F82FDA8C087E4B5
:1022D0000E94131B0E94941B87E4EECF8CEF8C0F9F
:1022E000813A48F48C2F0E94E325811198C08C2FED
:1022F0000E94131BE3CF80E28C0F883048F4C77034
:1023000081E001C0880FCA95EAF70E94581BD6CF1A
:102310008BE58C0F833078F4C53A29F0C63A31F456
:1023200082E890E005C081E890E002C083E890E098
:10233000CF910C94FA0F88E58C0F853108F06FC0AF
:10234000C83A61F1C93A69F1CA3A71F1CB3A79F107
:10235000CC3A81F1CD3A89F1CE3A91F1CF3A99F167
:10236000C13BA1F1C03BA9F1C23BB1F1C33BB9F103
:10237000C43BC1F1C53BC9F1C63BD1F1C73BD9F163
:10238000C83BE1F1C93BE9F1CA3BF1F1CB3BF9F1C3
:10239000CC3B09F03FC08AE292E03EC082EE90E082
:1023A0003BC089EE90E038C08AEE90E035C085EB06
:1023B00090E032C086EB90E02FC083EB90E02CC021
:1023C00084EB90E029C087EB90E026C08CEC90E095
:1023D00023C08DEC90E020C083E891E01DC08AE826
:1023E00091E01AC082E991E017C084E991E014C03D
:1023F00081E292E011C083E292E00EC084E292E0BA
:102400000BC085E292E008C086E292E005C087E258
:1024100092E002C080E090E0CF910C941010CF9138
:102420000895882309F44BC0823859F40E949E0F06
:1024300081FF45C089E30E94131B0E94941B89E31E
:102440000CC0833871F40E949E0F80FF38C083E572
:102450000E94131B0E94941B83E50E94341B0C9462
:10246000941B843859F40E949E0F82FF28C087E491
:102470000E94131B0E94941B87E4EFCF9CEF980FE0
:10248000913A58F390E2980F983050F4877091E0A9
:1024900001C0990F8A95EAF7892F0E945E1BDFCF52
:1024A0009BE5980F933020F480E090E00C94FA0FB5
:1024B000885A853120F480E090E00C941010089543
:1024C000882321F00E94581B0C94941B08958823A4
:1024D00021F00E945E1B0C94941B0895CF92DF9212
:1024E000EF92FF920F931F93CF93DF93CDB7DEB799
:1024F00028970FB6F894DEBF0FBECDBF8C0185E0E4
:10250000F801DE01119601900D928A95E1F7F8012C
:1025100040813181F280258122952F7083819481C1
:10252000892B31F03F3F31F481E04F3F19F403C074
:1025300081E001C080E080FDCFC249833A83898178
:102540009A812F830E94D11A9E8388870E94D01A75
:102550000E94A3194E81E42FE295EF70F0E0E05A5B
:10256000FF4F2F8168850C947728842F807F142F4C
:102570001F70882311F01295107FFF2059F011234E
:1025800009F45FC2812F68870E946B1B0E94941B15
:10259000688557C2862F0E941112112309F49CC22C
:1025A000812F0E94711B28960FB6F894DEBF0FBED4
:1025B000CDBFDF91CF911F910F91FF90EF90DF90F2
:1025C000CF900C94941B842F807F942F9F70E92EC2
:1025D000803219F0E29480EFE822662319F061302E
:1025E00001F129C0FF20A9F08E2D222349F12130CD
:1025F00039F528960FB6F894DEBF0FBECDBFDF9138
:10260000CF911F910F91FF90EF90DF90CF900C949E
:102610007B1B222319F0213009F45EC20E947E1B2D
:102620002CC0FF20E9F0263008F056C20E94551B4E
:102630008E2129F022C0FF20F1F0211115C08E2D2E
:1026400028960FB6F894DEBF0FBECDBFDF91CF91B5
:102650001F910F91FF90EF90DF90CF900C9460123C
:10266000253008F039C209C0F801858180FFE9C131
:102670008F708583E4CF2111F8C18E2D66C1242F80
:1026800026952695237030E02115310521F0213063
:102690003105C9F021C2FF2021F0862F942F9370BD
:1026A00002C080E090E028960FB6F894DEBF0FBE1F
:1026B000CDBFDF91CF911F910F91FF90EF90DF90F1
:1026C000CF900C94FA0FFF2021F0862F942F937057
:1026D00002C080E090E028960FB6F894DEBF0FBEEF
:1026E000CDBFDF91CF911F910F91FF90EF90DF90C1
:1026F000CF900C941010862FFF2019F00E94132009
:1027000002C00E947B2028960FB6F894DEBF0FBE51
:10271000CDBFDF91CF911F910F91FF90EF90DF9090
:10272000CF900C940021842F837009F076C0F110B3
:10273000D3C1262F229526952770220F220F862F90
:102740008F70C82ED12CE12CF12C022E04C0CC0CA1
:10275000DD1CEE1CFF1C0A94D2F764FF10C06FE072
:1027600070E080E090E004C0660F771F881F991F1B
:102770002A95D2F7609570958095909503C060E09A
:1027800070E0CB01242F269526952370422F50E030
:1027900042305105D1F04330510559F16C297D2962
:1027A0008E299F294130510541F128960FB6F894A2
:1027B000DEBF0FBECDBFDF91CF911F910F91FF9074
:1027C000EF90DF90CF900C94C8196C297D298E2949
:1027D0009F2928960FB6F894DEBF0FBECDBFDF91BC
:1027E000CF911F910F91FF90EF90DF90CF900C94BD
:1027F000E2190E94C819C701B60128960FB6F894CD
:10280000DEBF0FBECDBFDF91CF911F910F91FF9023
:10281000EF90DF90CF900C94AE19FF2019F0842F29
:10282000817001C08695882309F456C1262F229510
:1028300026952770220F220F862F8F70C82ED12C3D
:10284000E12CF12C022E04C0CC0CDD1CEE1CFF1C74
:102850000A94D2F764FF10C06FE070E080E090E06F
:1028600004C0660F771F881F991F2A95D2F76095BD
:1028700070958095909503C060E070E0CB01242FA7
:10288000269526952370422F50E042305105D1F015
:102890004330510559F16C297D298E299F294130FA
:1028A000510541F128960FB6F894DEBF0FBECDBF9B
:1028B000DF91CF911F910F91FF90EF90DF90CF901C
:1028C0000C949C1A6C297D298E299F2928960FB675
:1028D000F894DEBF0FBECDBFDF91CF911F910F9156
:1028E000FF90EF90DF90CF900C94B61A0E949C1A44
:1028F000C701B60128960FB6F894DEBF0FBECDBF54
:10290000DF91CF911F910F91FF90EF90DF90CF90CB
:102910000C94821A603F49F118F4603E48F48CC070
:10292000623F09F451C0E0F1633F09F461C084C023
:10293000162F1F70842F8F71FF2021F00E941B1A09
:10294000812F7ECE0E943C1A812F28960FB6F894D4
:10295000DEBF0FBECDBFDF91CF911F910F91FF90D2
:10296000EF90DF90CF900C946712FF20A9F02530F4
:1029700008F0B2C0842F8F7128960FB6F894DEBF8E
:102980000FBECDBFDF91CF911F910F91FF90EF90C0
:10299000DF90CF900C94611A263008F09DC0EACFEA
:1029A000FF20A1F0842F8F7128960FB6F894DEBF18
:1029B0000FBECDBFDF91CF911F910F91FF90EF9090
:1029C000DF90CF900C941B1AFF2061F3842F8F713E
:1029D00028960FB6F894DEBF0FBECDBFDF91CF9122
:1029E0001F910F91FF90EF90DF90CF900C943C1AC5
:1029F000FF2091F0842F8F7128960FB6F894DEBFD8
:102A00000FBECDBFDF91CF911F910F91FF90EF903F
:102A1000DF90CF900C94061A28960FB6F894DEBF7C
:102A20000FBECDBFDF91CF911F910F91FF90EF901F
:102A3000DF90CF900C94FC19FF20A1F0222309F421
:102A4000B1CF862F28960FB6F894DEBF0FBECDBF4C
:102A5000DF91CF911F910F91FF90EF90DF90CF907A
:102A60000C943E11222309F4B1CF862F28960FB67D
:102A7000F894DEBF0FBECDBFDF91CF911F910F91B4
:102A8000FF90EF90DF90CF900C9411124F70C8011F
:102A90000E94B11D28960FB6F894DEBF0FBECDBFC1
:102AA000DF91CF911F910F91FF90EF90DF90CF902A
:102AB0000C9406194F70C80128960FB6F894DEBF23
:102AC0000FBECDBFDF91CF911F910F91FF90EF907F
:102AD000DF90CF900C94B41D28960FB6F894DEBF0B
:102AE0000FBECDBFDF91CF911F910F91FF90EF905F
:102AF000DF90CF9008950E94781B0E94471B0E9490
:102B0000941B0E942E220E94002180E090E00E94EF
:102B1000FA0F80E090E00C9410100E94681B0C9457
:102B20007B150E94D11A292F22952F7030E02C306E
:102B300031054CF42A3031056CF422503109223031
:102B4000310590F407C02C30310551F02F3031059C
:102B500039F00AC0803E10F0803F31F481E00895E2
:102B600093FB882780F9089580E00895CF93DF9341
:102B700000D000D01F92CDB7DEB70F900F900F900E
:102B80000F900F90DF91CF910895CF93DF9300D0F6
:102B900000D000D0CDB7DEB726960FB6F894DEBFD2
:102BA0000FBECDBFDF91CF9108951F93CF93DF93D9
:102BB000C091660116E080916701C81799F0D0E0D6
:102BC0001C9FF0011D9FF00D1124E859FE4F40811C
:102BD000518162817381848195810E94C5152196FE
:102BE000C770E9CFDF91CF911F910895409198016F
:102BF0005091990160919A0170919B0180919C0183
:102C000090919D010C94C515CF9380919D01829563
:102C10008F7009F05FC080919A01882309F45AC02F
:102C200020916601A09167016091980170919901CE
:102C300080919B0190919C0131E06F3F09F030E061
:102C4000B32FC6E02A1709F445C0009721F07F3F53
:102C500021F44B2F03C041E001C040E030E040FDD3
:102C600035C0C29FF001C39FF00D1124E859FE4FFB
:102C7000418174132BC04081641328C042814111EB
:102C800025C0438154814817590710F44150510918
:102C9000481B590B483C5105C8F480919D018F7029
:102CA000806180939D0186E0829FF001839FF00DFB
:102CB0001124E359FE4F80818F708061808388E901
:102CC00091E00E946E12CF910C94D5152F5F3F4F6B
:102CD0002770B8CFCF910895CF92DF92EF92FF92F5
:102CE0000F931F93CF93DF93CDB7DEB762970FB6E5
:102CF000F894DEBF0FBECDBF8C0185E0F801DE0188
:102D00001D9601900D928A95E1F7D8014C9111968C
:102D10005C91119712966C9112971396ED90FC901E
:102D2000149770919801E091990120919B01309145
:102D30009C012115310531F0EF3F31F481E07F3FF7
:102D400019F403C081E001C080E0B82FB170CB2E30
:102D500080FD6CC1D0909A01DD2009F4F5C0F0919E
:102D60009D01E216F30638F0C701821B930B883CE5
:102D7000910548F09BC0209530952E0D3F1D283CB5
:102D8000310508F093C08F2F807F09F052C0E51302
:102D900014C0741312C0D62E61110FC0FF70F06101
:102DA000F0939D010E94F61588E991E00E946E1251
:102DB00080919D01F80185836CC1EF2831F05F3F60
:102DC00031F481E04F3F19F403C081E001C080E09D
:102DD00080FD03C081E0862701C080E0F82FF170FC
:102DE000FF2E80FF1CC0809166012091670136E0B4
:102DF000821709F428C190E0389FF001399FF00D47
:102E00001124E859FE4F7181571306C07081471392
:102E100003C07281671303C001968770E9CFD62E75
:102E2000662309F436C180919D01816080939D01E4
:102E300053C0E51308C0741306C0611104C0D80163
:102E40001596FC93AEC04D875E878D859E856A8BF7
:102E50000E9491156A89882329F1D62E662311F1E3
:102E600020919D01822F82958F7090E002970CF443
:102E700060C0809198019091990198878F831986FD
:102E8000FB86EA862C87CE01079651C0E51731F103
:102E90004D875E878D859E856A8B0E9491156A8914
:102EA00081112EC0C8010E946E12A4C08F2F807F96
:102EB00069F77E2DF98AE88A89890E94B61588E922
:102EC00091E00E946E12E8E9F1E086E0DF011D92D8
:102ED0008A95E9F70E94F615D12CDBC07413D8CF80
:102EE0006111D6CFD8011596FC93C8010E946E12CD
:102EF000E8E9F1E086E0DF011D928A95E9F7C9C0B3
:102F0000D62E662379F220919D01822F82958F70B3
:102F100090E0029774F080919801909199019A83C2
:102F200089831B82FD82EC822E83CE0101960E9452
:102F30006E1286E0F801A8E9B1E001900D928A9541
:102F4000E1F70E9404166FC0E216F30628F0C701ED
:102F5000821B930B9C0104C0209530952E0D3F1DC4
:102F6000283C310508F052C0D62E662309F49ACFCA
:102F7000E5132CC074132AC080919D0180FD1DC0F3
:102F8000982F92959F70C9F0D80115968C9315973C
:102F90009F3039F09F5F9295907F8F70892B1596A7
:102FA0008C93C8010E946E1286E0F801A8E9B1E096
:102FB00001900D928A95E1F736C086E0F801A8E904
:102FC000B1E001900D928A95E1F763C04D875E876D
:102FD0008D859E850E949115882379F086E0F80101
:102FE000A8E9B1E001900D928A95E1F70E940416DC
:102FF0000E94F615DD24D3944CC080919D01816020
:1030000080939D01C8010E946E1243C07E2DF98AF3
:10301000E88A89890E94B615E8E9F1E086E0DF01D7
:103020001D928A95E9F70E94F61533C0662309F4CC
:1030300039CF4D875E878D859E850E9491158823A7
:1030400009F430CFCBCF4D875E878D859E850E945A
:10305000D11A292F22952F7030E0223031052CF41F
:103060009F7041F0811106C00CC0243031052CF452
:103070009F7049F4805E883020F0C8010E946E1273
:10308000CF2CDC2C06C0D80115969C91907F91F72F
:10309000F8CF8D2D62960FB6F894DEBF0FBECDBF70
:1030A000DF91CF911F910F91FF90EF90DF90CF9024
:1030B00008951F93CF93DF93CDB7DEB72C970FB64C
:1030C000F894DEBF0FBECDBF4F83588769877A87DC
:1030D0008B879C87CE0107960E946C168823C1F0CF
:1030E0002F8138858A859B85892B31F03F3F11F0F0
:1030F00080E003C02F3FE1F781E0811147C04F819D
:10310000588569857A858B859C850E94C5153EC04A
:1031100086E0FE013796DE01119601900D928A95A8
:10312000E1F7FF81E8854A855B854115510531F05E
:10313000EF3F31F481E0FF3F19F403C081E001C0AB
:1031400080E080FD23C02091670130E0C901019635
:10315000877099276091660170E086179707F1F1F3
:10316000F983EA835D834C8396E0929FD001939F1D
:10317000B00D1124A859BE4FFE01319601900D9259
:103180009A95E1F7809367010E94D51516E080912A
:10319000660190916701891779F1189FC001112488
:1031A00088599E4F0E946C16882331F1E091660188
:1031B0001E9FF0011124E859FE4F40815181628128
:1031C0007381848195810E94C5158091660190E08C
:1031D00001968770992780936601D9CF0E948D153B
:1031E0001092670110926601E8E9F1E086E0DF01E4
:1031F0001D928A95E9F7CACF2C960FB6F894DEBFD8
:103200000FBECDBFDF91CF911F910895DF92EF9256
:10321000FF920F931F93CF93DF939C01009709F4C4
:103220008AC0E12CF12CDD24D394E9012196F90127
:103230008491853709F462C058F4843708F04EC091
:10324000843008F069C08130D1F0823071F173C0F0
:10325000883709F45CC050F4863709F454C08737C6
:1032600009F069C08E2D0E94651B53C09CE7980F22
:10327000903708F060C08F770E9411124FC089010B
:103280000E5F1F4FFE01C49180E28C0F883048F41E
:10329000C7708D2D01C0880FCA95EAF70E946B1B7D
:1032A00015C08C2F0E943E1113C089010E5F1F4F65
:1032B000FE01C49180E28C0F883060F4C7708D2DC0
:1032C00001C0880FCA95EAF70E94711B0E94941BE7
:1032D000E80124C08C2F0E941112FACF2E5F3F4FBD
:1032E000FE01C491CC2341F08FE99FE00197F1F7F3
:1032F00000C00000C150F6CFE90110C0FE01F490FB
:10330000E90122960BC00E94551BE82E07C00E94BF
:10331000681B0E94941B02C00E943E119F2D99239E
:1033200041F0EFE9FFE03197F1F700C00000915064
:10333000F6CF9E017ACFDF91CF911F910F91FF9031
:10334000EF90DF90089508956093A2017093A30118
:103350008093A4019093A5010C947B150F931F9368
:103360000091A2011091A3012091A4013091A50127
:10337000062B172B282B392B0093A2011093A301A6
:103380002093A4013093A5011F910F910C947B15FC
:103390000F931F930091A2011091A3012091A4010A
:1033A0003091A50106231723282339230093A20176
:1033B0001093A3012093A4013093A5011F910F91B5
:1033C0000C947B150F931F930091A2011091A30100
:1033D0002091A4013091A501062717272827392716
:1033E0000093A2011093A3012093A4013093A5019F
:1033F0001F910F910C947B1510929E0110929F01CA
:103400001092A0011092A1010C947B1541E050E0B4
:1034100060E070E004C0440F551F661F771F8A9557
:10342000D2F740939E0150939F016093A001709347
:10343000A1010C947B1541E050E060E070E004C015
:10344000440F551F661F771F8A95D2F780919E0102
:1034500090919F01A091A001B091A101842B952B87
:10346000A62BB72B80939E0190939F01A093A00160
:10347000B093A1010C947B1541E050E060E070E056
:1034800004C0440F551F661F771F8A95D2F74095D9
:1034900050956095709580919E0190919F01A091AB
:1034A000A001B091A10184239523A623B723809383
:1034B0009E0190939F01A093A001B093A1010C9451
:1034C0007B1541E050E060E070E004C0440F551F00
:1034D000661F771F8A95D2F780919E0190919F0178
:1034E000A091A001B091A10184279527A627B72715
:1034F00080939E0190939F01A093A001B093A1019E
:103500000C947B150F931F9300919E0110919F01C6
:103510002091A0013091A101062B172B282B392BCC
:1035200000939E0110939F012093A0013093A1016D
:103530001F910F910C947B150F931F9300919E0187
:1035400010919F012091A0013091A1010623172322
:103550002823392300939E0110939F012093A001FB
:103560003093A1011F910F910C947B150F931F9322
:1035700000919E0110919F012091A0013091A10125
:10358000062717272827392700939E0110939F01AC
:103590002093A0013093A1011F910F910C947B15F2
:1035A0000895CF92DF92EF92FF920F931F93CF93E4
:1035B000DF93EC01C090A201D090A301E090A401A0
:1035C000F090A50180919E0190919F01A091A00192
:1035D000B091A101C82AD92AEA2AFB2A0FE110E0FA
:1035E000B701A601002E04C07695679557954795BB
:1035F0000A94D2F740FF07C0BE01802F0E943E1DF3
:103600008130910539F40150110950F7BE0180E075
:103610000E943E1DDF91CF911F910F91FF90EF907F
:10362000DF90CF90089540910C0150910D0120E062
:1036300030E09FEFFA01E20FF31F6281681799F003
:103640009F3F19F4611101C0922F2F5F3F4F263029
:10365000310581F79F3F39F0FA01E90FF11D97FD20
:10366000FA9582830895089540910C0150910D01BF
:1036700020E030E0FA01E20FF31F9281981301C0BD
:1036800012822F5F3F4F26303105A1F7089581E068
:1036900090E0E0910C01F0910D01E80FF91F10820C
:1036A000019688309105A9F708958091B001089599
:1036B0009091B001982B9093B001089580959091CE
:1036C000B00198239093B00108958093B0010895BC
:1036D0001092B00108959091AF01982B9093AF0193
:1036E000089580959091AF0198239093AF0108952C
:1036F0001092AF0108958093A60108951092A6013B
:10370000089540910C0150910D0120E030E080E0DF
:10371000FA01E20FF31F918191118F5F2F5F3F4FED
:1037200027303105A9F70895E0910C01F0910D01C2
:103730008091B0018083E0910C01F0910D018081B6
:103740009091AF01892B80839091A601992361F01C
:10375000E0910C01F0910D018081892B80830E9402
:10376000811B81111092A60180910C0190910D0195
:103770000C94AA0F9093330180933201089582959F
:10378000982F9C7C96959695837344E0849F900136
:103790001124922B892F8A7A86959575990F892BFA
:1037A00008951F93CF93DF931F92CDB7DEB7998310
:1037B0000E94BF1B182F9981892F0E94BF1B212FA8
:1037C00030E0322F2227A901482BCA010F90DF9148
:1037D000CF911F9108958091C601843009F1109214
:1037E000B20120E488E190E00FB6F894A8958093A8
:1037F00060000FBE2093600083B7817F846083BF29
:1038000083B7816083BF7894889583B78E7F83BFA9
:1038100088E10FB6F89480936000109260000FBEAC
:10382000089508950895CF930E94111C0E94C10627
:103830000E94121CC0E08C2F0E94D507892B29F40E
:10384000CF5FC530C1F780E001C081E0CF9108951E
:103850000C948D151F920F920FB60F9211248F9317
:103860009F93AF93BF938091B201811113C0809158
:10387000B3019091B401A091B501B091B601419608
:10388000A11DB11D8093B3019093B401A093B50124
:10389000B093B601BF91AF919F918F910F900FBEE2
:1038A0000F901F90189582E084BD93E095BD9AEF2C
:1038B00097BD80936E0008952FB7F8948091B3015F
:1038C0009091B401A091B501B091B6012FBF0895B8
:1038D0002FB7F8946091B3017091B4018091B50154
:1038E0009091B6012FBF0895CF92DF92EF92FF9291
:1038F0000F931F932FB7F8944091B3015091B401E7
:103900006091B5017091B6012FBF6A017B01EE2471
:10391000FF248C0120E030E0C016D106E206F30659
:1039200010F441505109481B590BCA011F910F91C6
:10393000FF90EF90DF90CF9008951F920F920FB6F7
:103940000F9211248F939F93AF93BF938091B301F4
:103950009091B401A091B501B091B6010196A11D5D
:10396000B11D8093B3019093B401A093B501B093BE
:10397000B601BF91AF919F918F910F900FBE0F90A5
:103980001F9018950E94C20CF8942FEF87EA91E6D9
:10399000215080409040E1F700C0000087E090EBAC
:1039A000DC018093D0019093D101A093D201B09318
:1039B000D3012CE088E190E00FB6F894A8958093AD
:1039C00060000FBE20936000FFCF8F3A58F4883A12
:1039D00058F5853A10F58430F0F48130A1F581E096
:1039E00090E00895883E90F4803EA8F48F3B59F50E
:1039F0000E948D152FEF80E792E02150804090408B
:103A0000E1F700C000000E94C21C1DC0803FD8F03A
:103A100090E09065089590E00895853AB9F0863A6F
:103A2000C1F482E890E40895883AB1F0893AB9F097
:103A30008A3AC1F08B3AC9F08C3AD1F08D3AD9F478
:103A400083EB94E4089580E090E0089581E890E4A9
:103A5000089583E890E4089582EE94E4089589EE51
:103A600094E408958AEE94E4089585EB94E408952F
:103A700086EB94E4089584EB94E408950E947E0616
:103A8000803EA8F4803C00F5813309F45CC038F432
:103A9000893209F452C08A3209F45BC05FC08933AD
:103AA000B1F08238A1F0853309F441C057C0833E9C
:103AB00041F128F4803E99F0823EB9F04FC0863E35
:103AC00031F1873E71F14AC00E948D0608959091B0
:103AD000CF0190FD02C091FF41C080EE3FC08091B8
:103AE000CF0180FFFACF89E339C08091CF0182FFF7
:103AF0000CC08091CF0184FF02C080E02FC083EE14
:103B00002DC08091CF0182FFF4CF82EE27C080913B
:103B1000CF0183FF0AC08091CF0184FDEECF87EEF5
:103B20001DC08091CF0183FFF6CF86EE17C0809134
:103B3000CF0185FF06C089E211C08091CF0185FFCA
:103B4000FACF85E30BC08091CF0186FF06C08AE2E1
:103B500005C08091CF0186FFFACF81E30E94E51C6A
:103B6000089580E090E008950895BF92CF92DF928B
:103B7000EF92FF920F931F93CF93DF938C01B12CA1
:103B8000EE24E394F12C8B2D0E94D5076C01C0E04C
:103B9000D0E097010C2E02C0220F331F0A94E2F7E7
:103BA0002C213D21232BB1F06C2F7B2D80E00E9436
:103BB0003E1D9C018017910759F0832F807E932F23
:103BC000907C11F0803A31F430E02017310711F485
:103BD00081E009C02196CF30D105D9F6B39485E0B4
:103BE000B812D1CF80E0DF91CF911F910F91FF905C
:103BF000EF90DF90CF90BF900895CF93DF93EC01CB
:103C00008CE290E00E94B51D882329F0CE01DF915F
:103C1000CF910C94B51D80E0DF91CF910895CF93A3
:103C20000E946C1F811102C00E94521F89EA93E01A
:103C30000E94DC05C5E6C15049F00E94C1068FE331
:103C40009CE90197F1F700C00000F5CF82EA93E00C
:103C50000E94DC0589E290E00E94FD1D811120C1D7
:103C60008AE290E00E94FD1D81110E94521F85E0B2
:103C700090E00E94FD1D81110E94C21C0E94771FCE
:103C80008093B10187E090E00E94FD1D8823B1F18F
:103C90008BE190E00E94FD1D882351F09091B101CD
:103CA00091FB882780F921E0822780FB91F924C0CD
:103CB0008EE090E00E94FD1D882351F09091B101AB
:103CC00092FB882780F921E0822780FB92F914C0BB
:103CD00080E190E00E94FD1D9091B101882341F0A8
:103CE00093FB882780F921E0822780FB93F904C0A9
:103CF000892F809580FB90F99093B1018091B1015B
:103D00000E947B1F0E94891F8093CF0180EE90E06C
:103D10000E94FD1D882341F08091CF01982F90953E
:103D200090FB80F98093CF0189E390E00E94FD1D14
:103D3000882359F09091CF0191FB882780F921E0E9
:103D4000822780FB91F99093CF0182EE90E00E9450
:103D5000FD1D882359F09091CF0192FB882780F9AF
:103D600021E0822780FB92F99093CF0186EE90E0CC
:103D70000E94FD1D882359F09091CF0193FB882765
:103D800080F921E0822780FB93F99093CF0183EEA5
:103D900090E00E94FD1D882359F09091CF0194FB83
:103DA000882780F921E0822780FB94F99093CF0146
:103DB00085E390E00E94FD1D882359F09091CF018A
:103DC00095FB882780F921E0822780FB95F9909365
:103DD000CF0181E390E00E94FD1D882359F090916E
:103DE000CF0196FB882780F921E0822780FB96F996
:103DF0009093CF0181E190E00E94FD1D882359F04E
:103E00009091CF0197FB882780F921E0822780FBE2
:103E100097F99093CF018091CF010E948D1F87E287
:103E200090E00E94FD1DC82F8EE190E00E94FD1DD4
:103E30008111C2608FE190E00E94FD1D8111C4607C
:103E400080E290E00E94FD1D8111C86081E290E057
:103E50000E94FD1D8111C06182E290E00E94FD1D63
:103E60008111C06283E290E00E94FD1D8111C06457
:103E700084E290E00E94FD1D882311F0C06802C01A
:103E8000CC2329F08C2F0E94841F6C2F03C00E942A
:103E9000801F682F70E080E090E0CF910C94A4190F
:103EA000CF9108956DEE7EEF80E090E00E94AD2806
:103EB00060E082E090E00E949F2860E083E090E074
:103EC0000E949F2860E084E090E00E949F2860E0CC
:103ED00085E090E00C949F2880E090E00E94992873
:103EE00021E08D3E9E4F09F020E0822F089582E070
:103EF00090E00C949128682F82E090E00C949F2829
:103F000083E090E00C949128682F83E090E00C947B
:103F10009F2884E090E00C949128682F84E090E042
:103F20000C949F288091B90180FF0BC06091110112
:103F300085E0689FB0011124759567957595679523
:103F40002AC081FF09C06091110185E0689FB0011E
:103F50001124759567951FC082FF07C060911101FC
:103F600085E0689FB001112416C04091BA01442336
:103F7000C9F060911001461788F72091110185E082
:103F8000289F90011124429FC001439F900D11244E
:103F900070E00E9463286038710540F46115710576
:103FA00039F002C065E070E0862F08958FE708952C
:103FB00081E008958091B90180FF08C060910F01F0
:103FC00070E0759567957595679521C081FF06C06E
:103FD00060910F0170E07595679519C082FF04C06C
:103FE00060910F0170E010C08091BA018823C1F088
:103FF00060910E018617A0F790910F01989FC00164
:10400000112470E00E9463286038710528F461155E
:10401000710521F0862F08958FE7089581E00895B6
:1040200061E070E0F4CF803F21F40E94921F8195FF
:1040300004C0813F29F40E94921F8093BD0108951E
:10404000823F21F40E94921F819504C0833F29F48E
:104050000E94921F8093BC010895893F19F40E9429
:10406000DA1F05C08A3F31F40E94DA1F81958093E0
:10407000BE0108958B3F21F40E94DA1F819504C090
:104080008C3F29F40E94DA1F8093BF010895843F7A
:1040900021F48091BB01816017C0853F21F480919C
:1040A000BB01826011C0863F21F48091BB01846016
:1040B0000BC0873F21F48091BB01886005C0883F19
:1040C00031F48091BB0180618093BB0108958D3FE5
:1040D00021F48091B90181600BC08E3F21F4809161
:1040E000B901826005C08F3F29F48091B9018460D5
:1040F0008093B9010895803F39F48091BD0187FF15
:104100006CC01092BD0169C0813F29F48091BD014E
:104110001816BCF362C09091BC01823F29F497FF4E
:104120005CC01092BC0159C0833F19F41916CCF33E
:1041300054C0893F41F48091BE0118160CF04DC067
:104140001092BE014AC08A3F29F48091BE0187FFC8
:1041500044C0F6CF8B3F39F48091BF0187FF3DC04B
:104160001092BF013AC08C3F29F48091BF0118160C
:10417000BCF333C0843F21F48091BB018E7F17C014
:10418000853F21F48091BB018D7F11C0863F21F4D2
:104190008091BB018B7F0BC0873F21F48091BB01D5
:1041A000877F05C0883F31F48091BB018F7E80936B
:1041B000BB0113C08D3F21F48091B9018E7F0BC0EC
:1041C0008E3F21F48091B9018D7F05C08F3F29F486
:1041D0008091B9018B7F8093B9018091BC018111DD
:1041E0000EC08091BD0181110AC08091BE01811174
:1041F00006C08091BF01811102C01092BA010895DA
:104200008091B10183FF7EC085EE93E00E94DC05C2
:104210008091BB011F928F9380EE93E09F938F93C9
:104220000E9475068EED93E00E94DC052091BC0192
:10423000822F992787FD90959F932F938BED93E085
:104240009F938F930E94750689ED93E00E94DC0591
:104250002091BD01822F992787FD90959F932F93E1
:1042600086ED93E09F938F930E94750684ED93E013
:104270000E94DC052091BE01822F992787FD909531
:104280009F932F9381ED93E09F938F930E947506E8
:104290008FEC93E00E94DC052091BF01822F9927CB
:1042A00087FD90959F932F938CEC93E09F938F9332
:1042B0000E94750689EC93E00E94DC058091BA01AA
:1042C0001F928F9386EC93E09F938F930E947506C5
:1042D00084EC93E00E94DC058091B9011F928F93DA
:1042E00081EC93E09F938F930E9475068EEB93E091
:1042F0000E94DC058DB79EB74C960FB6F8949EBF12
:104300000FBE8DBF8BEB91E00E94EF0F0E945C1CF3
:104310009093B8018093B70108951F93CF93DF93D3
:104320008091B7019091B8010E94741C4091BA012C
:10433000442321F02091120130E006C020911301A6
:104340005AE0259F900111248217930708F482C038
:104350008091BC011091BD01D091BE01C091BF01FF
:10436000811107C0111105C0D11103C0CC2309F47C
:1043700071C04F3F19F04F5F4093BA01181624F4F3
:104380000E94921F8093BC018091BC0187FF05C0F1
:104390000E94921F81958093BC01111624F40E9403
:1043A000921F8093BD018091BD0187FF05C00E94CF
:1043B000921F81958093BD016091BC01662339F104
:1043C0001091BD01112319F1772767FD7095872F93
:1043D000972F0E94682723E333E343E35FE30E94C0
:1043E000CC270E9435276093BC01612F772767FD9A
:1043F0007095872F972F0E94682723E333E343E3C9
:104400005FE30E94CC270E9435276093BD011D16F3
:1044100024F40E94DA1F8093BE018091BE0187FFC1
:1044200005C00E94DA1F81958093BE011C1624F4FA
:104430000E94DA1F8093BF018091BF0187FF05C0F2
:104440000E94DA1F81958093BF01DF91CF911F9168
:104450000C940021DF91CF911F910895EBEBF1E0D7
:1044600085E0DF011D928A95E9F71092BA0110925A
:10447000B901089588E096E00E94DC051F9281E072
:104480008F931F9285E08F938AEB95E09F938F9394
:104490000E9475060F900F900F900F900F900F9045
:1044A00008958330E9F128F4813061F0823009F118
:1044B0000895853009F462C008F449C0863009F4D3
:1044C00074C0089520911301862F90E0820F911DF2
:1044D0008F3F910520F4620F6093130103C08FEFAB
:1044E00080931301809113011F928F9383EF94E0C7
:1044F00072C020911201862F90E0820F911D8F3F94
:10450000910520F4620F6093120103C08FEF809336
:104510001201809112011F928F9381EE94E05BC093
:1045200020911101862F90E0820F911D8F3F910500
:1045300020F4620F6093110103C08FEF809311018B
:10454000809111011F928F938EEC94E044C02091D2
:104550001001862F90E0820F911D8F3F910520F46E
:10456000620F6093100103C08FEF80931001809160
:1045700010011F928F9389EB94E02DC020910F01C1
:10458000862F90E0820F911D8F3F910520F4620FDE
:1045900060930F0103C08FEF80930F0180910F0193
:1045A0001F928F9380EA94E016C020910E01862F0F
:1045B00090E0820F911D8F3F910520F4620F609370
:1045C0000E0103C08FEF80930E0180910E011F92A8
:1045D0008F9385E894E09F938F930E9475060F90C8
:1045E0000F900F900F900895833081F128F481305F
:1045F00059F08230D1F00895853009F449C0B8F1FE
:10460000863009F456C0089580911301681720F48C
:10461000861B8093130102C0109213018091130135
:104620001F928F9386E794E054C08091120168171F
:1046300020F4861B8093120102C010921201809117
:1046400012011F928F9384E694E043C08091110180
:10465000681720F4861B8093110102C0109211018B
:10466000809111011F928F9381E594E032C0809177
:104670001001681720F4861B8093100102C010926D
:104680001001809110011F928F938CE394E021C060
:1046900080910F01681720F4861B80930F0102C0E0
:1046A00010920F0180910F011F928F9383E294E08B
:1046B00010C080910E01681720F4861B80930E01B4
:1046C00002C010920E0180910E011F928F9388E01C
:1046D00094E09F938F930E9475060F900F900F9018
:1046E0000F900895CF93C82F1F928F932DE037E03E
:1046F0003F932F930E94750661E070E080E090E0A8
:1047000004C0660F771F881F991FCA95D2F70E94B1
:10471000A4190F900F900F900F90CF910C948D15BE
:10472000CF938732B0F58E3108F03DC28E3009F458
:10473000BDC100F5873009F48DC1A8F4863009F0B9
:1047400036C28091B101817F8E7F8093B10182E179
:1047500097E00E94DC0585E09BE00E94DC0581E09B
:104760008093C10175C1883009F43FC08B3009F4D2
:104770006BC11DC2863109F4DDC120F4803109F41A
:10478000A8C115C2893109F4BEC18B3109F47BC1BE
:104790000EC2883309F458C150F4893209F401C2B9
:1047A000853309F4FEC1873209F001C2FAC18334AE
:1047B00009F4F7C128F48A3308F4F9C18953F4C124
:1047C000883409F0F4C10E948D1584EF9AE00E94AC
:1047D000DC059FEF23ED80E3915020408040E1F71E
:1047E00000C000000E94C21C33C189E09BE00E940F
:1047F000DC0589E099E00E94DC050E94801F1F9281
:104800008F9386E099E09F938F930E94750684E0D2
:1048100099E00E94DC050E94771FC82F81EF98E085
:104820000E94DC051F92CF932CEE38E03F932F932C
:104830000E9475068AEE98E00E94DC0580EE98E002
:104840000E94DC058C2F81701F928F932DED38E034
:104850003F932F930E9475068BED98E00E94DC0534
:1048600081ED98E00E94DC05C1FB882780F91F924A
:104870008F932EEC38E03F932F930E9475068CECBB
:1048800098E00E94DC0580EC98E00E94DC05C2FB09
:10489000882780F91F928F932DEB38E03F932F9359
:1048A0000E9475068BEB98E00E94DC0582EB98E095
:1048B0000E94DC05C3FBCC27C0F91F92CF938FEA7F
:1048C00098E09F938F930E9475068DEA98E00E946E
:1048D000DC050E94891FC82F89E998E00E94DC0549
:1048E0001F92CF9324E938E03F932F930E947506DF
:1048F00082E998E00E94DC0589E798E00E94DC05E7
:104900008C2F81701F928F9326E738E03F932F936F
:104910000E9475068DB79EB780960FB6F8949EBF1D
:104920000FBE8DBF84E798E00E94DC058DE598E01E
:104930000E94DC05C1FB882780F91F928F932AE52E
:1049400038E03F932F930E94750688E598E00E9417
:10495000DC0586E498E00E94DC05C2FB882780F92C
:104960001F928F9323E438E03F932F930E947506A4
:1049700081E498E00E94DC058FE298E00E94DC056B
:10498000C3FB882780F91F928F932CE238E03F9376
:104990002F930E9475068AE298E00E94DC0580E26F
:1049A00098E00E94DC05C4FB882780F91F928F9352
:1049B0002DE138E03F932F930E9475068BE198E03C
:1049C0000E94DC0589E098E00E94DC05C5FB882791
:1049D00080F91F928F9326E038E03F932F930E9437
:1049E000750684E098E00E94DC0588EE97E00E945E
:1049F000DC05C6FB882780F91F928F9325EE37E0F0
:104A00003F932F930E94750683EE97E00E94DC058A
:104A10008BED97E00E94DC05C7FBCC27C0F91F9205
:104A2000CF9388ED97E09F938F930E94750686ED54
:104A300097E00E94DC058DB79EB74C960FB6F894B0
:104A40009EBF0FBE8DBF04C089E397E00E94DC05C6
:104A5000C1E0B2C08091B101C82FC17080FF09C010
:104A600087EE9AE00E94DC058091B101817F8E7F04
:104A700044C08BED9AE00E94DC058091B101816019
:104A80008093B101E5CF8091B10181FBCC27C0F9C2
:104A900091E0C927C0FB81F98093B101CC2319F0C3
:104AA0008EEC9AE025C080EC9AE0D0CF8091B101E5
:104AB00082FBCC27C0F991E0C927C0FB82F9809323
:104AC000B101CC2319F081EB9AE012C081EA9AE09F
:104AD000BDCF8091B10183FBCC27C0F991E0C927FC
:104AE000C0FB83F98093B101CC2351F085E99AE0B2
:104AF0000E94DC058091B10181608093B1015CC0AE
:104B000088E89AE0A3CF89E79AE00E94DC0587E471
:104B10009AE00E94DC0586E19AE00E94DC058FEEB7
:104B200099E00E94DC058FEA99E00E94DC0584E8A8
:104B300099E08CCF86E799E00E94DC050E949E0FE9
:104B40001F928F938CE599E09F938F930E94750637
:104B500080910B011F928F9385E499E09F938F932F
:104B60000E947506809154011F928F9382E399E011
:104B70009F938F930E9475060E94681C9F938F934A
:104B80007F936F938BE199E09F938F930E947506BB
:104B90008DB79EB742960FB6F8949EBF0FBE8DBFDD
:104BA00057CF80E001C08D510E94722351CF89E11F
:104BB00099E00E94DC05C0E08C2FCF91089580E041
:104BC000089580E00895CF93C82F8091C10181306E
:104BD00071F020F0823009F448C03FC1A0910C016F
:104BE000B0910D018C91823209F039C107C0A091BA
:104BF0000C01B0910D018C91823249F48C2F0E94EE
:104C0000DF2581112FC08C2F0E9490232CC08C2F68
:104C10000E94E125811126C0C431E1F070F4CB304F
:104C200081F0C031D1F40E943A2285E097E00E94E1
:104C3000DC0582E08093C10115C0C93259F0C83348
:104C400061F482E197E00E94DC0589E097E00E9430
:104C5000DC0508C01092C10104C183E097E00E9406
:104C6000DC05FFC081E08170FEC0C43228F5CE3182
:104C700008F0C1C0CB30A1F1D0F4C73009F0D3C0E7
:104C80008EE18093130182E3809312018AE0809386
:104C9000110184E18093100188E080930F0188E284
:104CA00080930E0189EA95E00E94DC05BFC0C33104
:104CB00049F1C431C1F0B7C0CB3409F4A9C028F41C
:104CC000C93289F0C83361F0AEC0C13509F49EC065
:104CD000C23509F499C0CE3409F0A5C06AE09EC07F
:104CE0000E943A22A3C08091C001882319F010923B
:104CF000C0019CC086EB95E00E94DC0581E08093BA
:104D0000C101B1C080E995E00E94DC058EE795E025
:104D10000E94DC05809113011F928F938BE795E031
:104D20009F938F930E94750689E795E00E94DC05AA
:104D300087E695E00E94DC05809112011F928F9317
:104D400084E695E09F938F930E94750682E695E036
:104D50000E94DC0583E595E00E94DC05809111014D
:104D60001F928F9380E595E09F938F930E94750625
:104D70008EE495E00E94DC058DE395E00E94DC0561
:104D8000809110011F928F938AE395E09F938F93F8
:104D90000E94750688E395E00E94DC0583E295E0B9
:104DA0000E94DC0580910F011F928F9380E295E0B5
:104DB0009F938F930E9475068EE195E00E94DC051B
:104DC00087E095E00E94DC0580910E011F928F9391
:104DD00084E095E09F938F930E94750682E095E0B2
:104DE0000E94DC058DB79EB748960FB6F8949EBF1B
:104DF0000FBE8DBF1BC0CE51EC2FF0E0E85DFE4F23
:104E000080818093C00112C061E003C061E006C0F0
:104E10006AE08091C0010E94512208C08091C001C7
:104E20000E94F42203C087EA95E013C08091C0017C
:104E3000882369F01F928F9381EA95E09F938F9367
:104E40000E9475060F900F900F900F9004C08EE98E
:104E500095E00E94DC0581E006C01092C10180E06F
:104E600002C080E000CFCF91089504D06894B111C2
:104E70008DC0089570D088F09F5790F0B92F992772
:104E8000B751A0F0D1F0660F771F881F991F1AF055
:104E9000BA95C9F712C0B13081F077D0B1E008956A
:104EA00074C0672F782F8827B85F39F0B93FCCF3EB
:104EB000869577956795B395D9F73EF4909580954B
:104EC000709561957F4F8F4F9F4F0895E89409C06B
:104ED00097FB3EF490958095709561957F4F8F4F2D
:104EE0009F4F9923A9F0F92F96E9BB279395F69543
:104EF000879577956795B795F111F8CFFAF4BB0FC1
:104F000011F460FF1BC06F5F7F4F8F4F9F4F16C024
:104F1000882311F096E911C0772321F09EE8872FAE
:104F2000762F05C0662371F096E8862F70E060E06A
:104F30002AF09A95660F771F881FDAF7880F9695E3
:104F4000879597F9089557FD9058440F551F59F0CC
:104F50005F3F71F04795880F97FB991F61F09F3F66
:104F600079F087950895121613061406551FF2CF8F
:104F70004695F1DF08C0161617061806991FF1CFDF
:104F800086957105610508940895E894BB27662706
:104F90007727CB0197F908950BD078C069D028F016
:104FA0006ED018F0952309F05AC05FC01124EECFDF
:104FB000CADFA0F3959FD1F3950F50E0551F629F74
:104FC000F001729FBB27F00DB11D639FAA27F00D62
:104FD000B11DAA1F649F6627B00DA11D661F829F89
:104FE0002227B00DA11D621F739FB00DA11D621F6E
:104FF000839FA00D611D221F749F3327A00D611D8B
:10500000231F849F600D211D822F762F6A2F11246C
:105010009F5750408AF0E1F088234AF0EE0FFF1FBF
:10502000BB1F661F771F881F91505040A9F79E3FF6
:10503000510570F014C0AACF5F3FECF3983EDCF34B
:10504000869577956795B795F795E7959F5FC1F733
:10505000FE2B880F911D9695879597F9089597F9DE
:105060009F6780E870E060E008959FEF80EC08950E
:1050700000240A9416161706180609060895002437
:105080000A9412161306140605060895092E0394B1
:10509000000C11F4882352F0BB0F40F4BF2B11F425
:1050A00060FF04C06F5F7F4F8F4F9F4F0895991B24
:1050B00079E004C0991F961708F0961B881F7A950F
:1050C000C9F78095089597FB072E16F4009407D032
:1050D00077FD09D00E947D2807FC05D03EF490950D
:1050E00081959F4F0895709561957F4F0895EE0FBC
:1050F000FF1F0590F491E02D0994AA1BBB1B51E101
:1051000007C0AA1FBB1FA617B70710F0A61BB70B37
:10511000881F991F5A95A9F780959095BC01CD01DC
:105120000895F999FECF92BD81BDF89A992780B56F
:105130000895A8E1B0E042E050E00C94B428262F96
:10514000F999FECF1FBA92BD81BD20BD0FB6F8946C
:10515000FA9AF99A0FBE019608950E949F28272F68
:105160000C94A028DC01CB01FC01F999FECF06C00C
:10517000F2BDE1BDF89A319600B40D924150504015
:08518000B8F70895F894FFCF81
:105188000526081709F408C0088D0801A701280892
:10519800140A321E3F4D36202F03E202AC028C0265
:1051A800180231024A0263020102030405060708D5
:0251B8000900EC
:00000001FF
